:020000040800F2
:10000000380700209101000887130008BB11000881
:1000100085130008AF0500088B18000800000000D9
:10002000000000000000000000000000A115000812
:10003000B1050008000000009F150008A315000886
:10004000AB010008AB010008AB010008AB010008E0
:10005000AB010008AB010008AB010008AB010008D0
:10006000AB010008AB010008AB010008AB010008C0
:10007000AB010008AB010008AB010008AB010008B0
:10008000AB010008AB010008AB010008AB010008A0
:10009000AB010008AB010008AB010008AB01000890
:1000A000AB01000801160008AB010008AB01000815
:1000B000AB010008AB010008AB010008AB01000870
:1000C000AB010008AB010008AB010008AB01000860
:1000D000AB010008AB010008AB010008AB01000850
:1000E000AB010008AB010008AB01000800F002F80A
:1000F00000F03FF80AA090E8000C82448344AAF183
:100100000107DA4501D100F034F8AFF2090EBAE880
:100110000F0013F0010F18BFFB1A43F0010318473B
:100120001424000034240000103A24BF78C878C199
:10013000FAD8520724BF30C830C144BF04680C60ED
:10014000704700000023002400250026103A28BF35
:1001500078C1FBD8520728BF30C148BF0B60704739
:10016000642900F07180002070471FB51FBD10B5D5
:1001700010BD00F0E2F91146FFF7F7FF01F0FAFBBE
:1001800000F000FA03B4FFF7F2FF03BC00F008FA36
:100190000948804709480047FEE7FEE7FEE7FEE71B
:1001A000FEE7FEE7FEE7FEE7FEE7FEE70448054957
:1001B000054A064B70470000FF150008ED000008D7
:1001C00038010020380700203803002038030020C1
:1001D0000FB41CB5074B06AA7B44694600900598EE
:1001E00000F093F90020694600F0A2F91CBC5DF80C
:1001F00014FB00005503000070B5044685690068D3
:10020000C10601D5302600E02026C00707D070BD0A
:10021000D4E9012130469047206A401C20626D1EBF
:10022000F6D570BD70B5044685690078C00707D162
:1002300070BDD4E9012120209047206A401C206233
:100240006D1EF6D570BD00002DE9F0410646002474
:1002500010687529314616A510D0AFF3008000282C
:1002600002DA404213A507E031688A0701D512A5DA
:1002700002E0490704D511A5012401E0AFF3008095
:1002800000210A2206F1240709E0B0FBF2FCB0FBD2
:10029000F2F302FB1C00303078541846491C002849
:1002A000F3D123462A463046BDE8F04100F0CEB8EF
:1002B000000000002D0000002B00000020000000C6
:1002C0002DE9F05F894604464FF0000ADFF824B1BB
:1002D000FB44C0F820A02046E168884700287DD074
:1002E000252806D0D4E901219047206A401C2062CD
:1002F000F1E700255F462046E1688847202806464A
:1003000007DB312E05D2B81910F8200C08B10543CF
:10031000F1E7A80701D525F00405C4F81CA00027C3
:10032000C4F818A02A2E09D0304601F01BFB38B3C0
:1003300004EB8708303EC8F8186019E059F8041B30
:10034000204604EB87029161E1688847012F064649
:1003500018D1E069002820DA25F020051DE0D8F842
:10036000180000EB800006EB40003038C8F8180099
:100370002046E1688847064601F0F4FA0028EED1ED
:10038000012F0AD02E2E08D12046E16888477F1C15
:100390000646022F45F02005C4DBA069002803DAD9
:1003A000404245F00105A061E80701D025F01005A5
:1003B000A6B1A6F14100192802D8203645F40065FF
:1003C0004A463146204625604D46FFF7C9FE60B1DA
:1003D000012807D0ED1D25F0070000E007E000F13F
:1003E000080978E705F1040975E730467AE7206ADD
:1003F000BDE8F09F4E2200004FF0000200B513460A
:1004000094469646203922BFA0E80C50A0E80C5034
:10041000B1F12001BFF4F7AF090728BFA0E80C50E5
:1004200048BF0CC05DF804EB890028BF40F8042BDE
:1004300008BF704748BF20F8022B11F0804F18BF4B
:1004400000F8012B70477047704770472DE9F0475F
:100450000D4699469246044600F124080168880634
:1004600004D5E06921F01001216000E00120A842DC
:1004700001DD471B00E00027A1697A1902EB0900A2
:10048000081AA0612078C00602D42046FFF7B4FE07
:10049000002608E0D4E901211AF806009047206AF6
:1004A000401C761C20624E45F4DB2078C0060AD53D
:1004B0002046FFF7A1FE06E0D4E901213020904755
:1004C000206A401C2062381EA7F10107F4DC07E017
:1004D000D4E9012118F805009047206A401C2062E9
:1004E000281EA5F10105F3DC2046FFF79BFE2078CE
:1004F000000602D50220BDE8F0870120FBE70000DE
:1005000001694A1C02610878704700B58FB0CDE9D7
:1005100001310021059105497944CDE903101146C7
:100520006846FFF7CDFE0FB000BD0000E5FFFFFFFE
:100530000A6802F8010B0A607047754600F02CF853
:10054000AE4605006946534620F00700854618B0C0
:1005500020B5FFF72BFEBDE820404FF000064FF01E
:1005600000074FF000084FF0000B21F00701AC46E8
:10057000ACE8C009ACE8C009ACE8C009ACE8C00907
:100580008D46704710B50446AFF300802046BDE8A5
:100590001040FFF7F7BD000000487047D40000206E
:1005A00001491820ABBEFEE7260002007047FEE7B7
:1005B000704772B6FEE7000070B5044600F010F90F
:1005C0000546601C02D004480078044400F008F995
:1005D000401BA042FAD370BD180000202DE9F84F4F
:1005E000DFF8B8910024A9F1040B23460F2709F185
:1005F000040AABF1040EC9E00125A5402A40AA4235
:100600007DD1674ED1F804C0ACEB0608B44532D0BA
:1006100014DCBCF1030F3AD009DCBCF1000F2AD086
:10062000BCF1010F1CD0BCF1020F31D11DE0BCF1B7
:10063000110F17D0BCF1120F2AD119E0B8F5881F9D
:1006400019D006DCB8F5803F15D0B8F5801F1FD152
:1006500011E0B8F5001F0ED0B8F5041F18D10AE05C
:10066000CB6815E0CB681B1D12E0CB6808330FE0A8
:10067000CB680C330CE08B682BB1012B4FF00803D7
:1006800003D0456104E0042302E0056100E000239B
:10069000FF2A01D8064601E000F104064FEA84056E
:1006A00001D9A5F12005D6F8008007FA05FC28EA53
:1006B0000C0803FA05F548EA0508C6F800804D68FD
:1006C000ED0062D5374DAE6946F00106AE61AD6909
:1006D00024F0030605F001050095334D06EB050CEB
:1006E000DCF80850A607360F07FA06F825EA0805D1
:1006F000DFF8B880404503D14FF0000817E044E030
:10070000DFF8AC80404502D14FF001080FE0DFF880
:10071000A480404502D14FF0020808E0DFF898803D
:10072000404502D14FF0030801E04FF0040808FAF9
:1007300006F848EA0508CCF808804D68D9F800604A
:10074000ED024D4601D5164300E096432E604D68FC
:10075000DAF80060AD02554601D5164300E0964335
:100760002E604D68DBF80060AD035D4601D5164391
:1007700000E096432E604D68DEF80060ED0375469C
:1007800001D5164300E096432E60641C0D682A468E
:10079000E5407FF431AFBDE8F88F00000804014068
:1007A000000011100010024000000140000801404C
:1007B000000C014000100140001401408068084016
:1007C00000D001207047C26821EA02030A4043EAD0
:1007D0000241016170470AB1016170470904FBE7FA
:1007E00001488068704700001800002002488168B6
:1007F000027811448160704718000020074810B546
:10080000016841F010010160032000F075F80F202D
:1008100000F006F800F024F8002010BD002002408F
:1008200070B50D4D04464FF47A712878B1FBF0F0A5
:100830000A490968B1FBF0F000F0BCFA48B9102C85
:1008400007D200222146501E00F036F800206C60CE
:1008500070BD012070BD00001800002024000020A1
:100860000C4808B5816941F001018161816901F09D
:1008700001010091C16941F08051C161C06900F07E
:10088000805000900448416821F0E06141F000711F
:10089000416008BD0010024000000140002809DB53
:1008A00000F01F02012191404009800000F1E0208A
:1008B000C0F8001170470000F0B40E4B1B680C46E6
:1008C000C3F30223C3F10705042D00D90425191D24
:1008D000072901D2002300E0DB1E012606FA05F1FC
:1008E000491E214099409E40761E16403143F0BC7F
:1008F00001F028B80CED00E0064900F00702086896
:100900004FF6FF03184040EA0220034A10430860F4
:10091000704700000CED00E00000FA052DE9F047FB
:100920000F46050061D0434E306800F00700B84222
:1009300009D2306820F0070038433060306800F09A
:100940000700B84251D128683B4C810712D54007B7
:1009500003D5606840F4E06060602878000703D544
:10096000606840F4605060606068A96820F0F00042
:10097000084360602878C00728D06868012810D034
:100980002168022810D0890700292EDA616821F039
:10099000030101436160FFF723FF804641F288397C
:1009A0000DE021688903EFE78901EDE7FFF718FF04
:1009B000A0EB0801494502D90320BDE8F087606833
:1009C000696800F00C00B0EB810FEFD1306800F0E7
:1009D0000700B8420BD9306820F007003843306078
:1009E000306800F00700B84201D00120E5E7287820
:1009F000400705D56068E96820F4E060084360605E
:100A00002878000706D56068296920F4605040EA1C
:100A1000C100606000F018F86168084AC1F3031172
:100A2000515CC8400649086006480068FFF7F8FEB8
:100A30000020C2E70020024000100240FA1C00081B
:100A4000240000201C0000200E4A51680E4801F0CE
:100A50000C03042B11D0082B0FD10C48C1F3834396
:100A6000C903C05C0AD55168084AC1F34041921ECF
:100A7000515C054A5043B0FBF1F0704704494843CC
:100A8000704700000010024000127A00EA1C0008C3
:100A900000093D002DE9F84F040070D02078C04DCA
:100AA000C00749D06868C0F38100012807D0686892
:100AB000C0F38100022809D16868C00306D5286800
:100AC000800339D560680028E7D035E06068B0F56C
:100AD000803F0BD010B1B0F5A02F11D0286820F4C2
:100AE00080302860286820F4802002E0286840F4E4
:100AF00080302860606890B1FFF772FE06460AE019
:100B0000286840F480202860F0E700BFFFF768FE07
:100B1000801B642873D828688003F7D50CE0FFF7A2
:100B20005FFE064605E000BFFFF75AFE801B642803
:100B3000F0D828688003F7D420789A4E80074FF0C9
:100B400001094FF0000839D5686810F00C0F07D084
:100B50006868C0F38100022809D16868C00306D420
:100B60002868800714D52069012808D110E0206981
:100B7000B0B1C6F80090FFF733FE074605E00AE182
:100B8000FFF72EFEC01B0228C4D828688007F7D5BF
:100B90002868616920F0F80040EAC10028600DE093
:100BA000C6F80080FFF71CFE074604E0FFF718FEBA
:100BB000C01B022823D828688007F7D420780007B4
:100BC0002CD57948A169D9B1C0F80090FFF708FE8B
:100BD000074604E0FFF704FEC01B02280FD8686A2E
:100BE0008007F7D571484FF4FA510068B0FBF1F077
:100BF000009000BF0098411E0091FAD20EE080E004
:100C0000C0F80080FFF7ECFD074604E0FFF7E8FDC1
:100C1000C01B022875D8686A8007F7D4207840077F
:100C200060D5E8690027C00008D4E86940F080502A
:100C3000E861E869012700F0805000905C48016895
:100C4000C90513D40168834641F480710160FFF740
:100C5000C7FD824606E000BFFFF7C2FDA0EB0A0019
:100C600064284ED8DBF80000C005F5D5E0680128FF
:100C70000AD008B1052813D0286A20F001002862A4
:100C8000286A20F0040002E0286A40F0010028628F
:100C9000E06841F2883B98B1FFF7A2FD82460BE085
:100CA000286A40F004002862EEE700BFFFF798FDD5
:100CB000A0EB0A0159455AD8286A8007F6D50CE0FE
:100CC000FFF78EFD824605E0FFF78AFDA0EB0A01E3
:100CD00059454CD8286A8007F6D41FB1E86920F03E
:100CE0008050E861E06988B36968C1F38101022935
:100CF00044D00228C6F8608004D0FFF771FD044696
:100D000038E034E0FFF76CFD074604E0FFF768FDCC
:100D1000C01B02282BD828688001F7D4206AB0F5C0
:100D2000803F05D16868A16820F4003008436860FE
:100D3000D4E908010843696821F474110843686024
:100D4000C6F86090FFF74CFD044606E025E000BFC2
:100D5000FFF746FD001B022809D828688001F7D557
:100D60001BE000BFFFF73CFD001B022802D9032057
:100D7000BDE8F88F28688001F4D40EE00128F7D090
:100D80006868226A00F48031914204D1616A00F4FB
:100D90007010884201D00120EAE70020E8E7000057
:100DA0000010024000004242800442422400002021
:100DB0000070004010B5401EB0F1807F01D30120CB
:100DC00010BD4FF0E02460610F21601700F0BAFD04
:100DD0000020A06107202061002010BD70477047EF
:100DE00070B590F83C20012A26D0012480F83C40C0
:100DF000022280F83D2003685A689D6822F0700640
:100E00000A6832435A600D4B02689A4208D0B2F128
:100E1000804F05D00A4B9A4202D00A4B9A4204D125
:100E2000496825F080031943916080F83D40002116
:100E300080F83C10084670BD022070BD002C0140B7
:100E4000000400400008004010B5040003D094F8EE
:100E50003D0010B107E0012010BD002084F83C00E7
:100E6000204600F01FF8022084F83D00211D206874
:100E700000F0A0FC012084F8460084F83E0084F8CD
:100E80003F0084F8400084F8410084F8420084F870
:100E9000430084F8440084F8450084F83D000020B5
:100EA00010BD000008B500680B49884212D10B48FC
:100EB000816941F4006181618069002200F4006071
:100EC000009011461920FFF7F7FCBDE808401920F3
:100ED000FFF7E4BC08BD0000002C014000100240F8
:100EE00090F83D10012901D001207047022180F8BF
:100EF0003D100168CA6842F00102CA6000680B49EF
:100F0000884208D0B0F1804F05D00949884202D00C
:100F10000849884204D1816801F00701062903D0FD
:100F2000016841F00101016000207047002C014080
:100F3000000400400008004070B5044690F83C00F2
:100F40000025012817D0012684F83C60022084F88F
:100F50003D002068826822F0770222F47F4282609E
:100F60000868502838D00DDC20284FD005DC90B31D
:100F7000102811D14AE0022070BD302846D0402808
:100F80000AD13BE060282FD070280DD0B0F5805FEB
:100F900003D0B0F5005F12D0012584F83D60002039
:100FA00084F83C00284670BDCB68D1E90121206857
:100FB00000F036FC2068816841F0770109E0CB68D9
:100FC000D1E90121206800F02BFC2068816841F400
:100FD00080418160E1E719E0CA684968206800F053
:100FE00031FC5021206806E0CA684968206800F09A
:100FF0003AFC6021206800F01DFCCEE7CA68496811
:10100000206800F01FFC40212068F4E722680146B8
:101010001046F0E7704770B50446006801694FF06C
:101020000005C943890715D4C168C943890711D48C
:10103000E91E016101202077206880698007204631
:1010400002D0FFF7E7FF04E000F098F8204600F038
:1010500096F8257720680169C943490717D4C16804
:10106000C943490713D46FF00401016102202077BE
:101070002068806910F4407F204602D0FFF7CAFF45
:1010800004E000F07BF8204600F079F8257720682E
:101090000169C943090716D4C168C943090712D4B5
:1010A0006FF008010161042020772068C069800783
:1010B000204602D0FFF7AEFF04E000F05FF82046C4
:1010C00000F05DF8257720680169C943C90617D487
:1010D000C168C943C90613D46FF01001016108202B
:1010E00020772068C06910F4407F204602D0FFF7C7
:1010F00091FF04E000F042F8204600F040F8257728
:1011000020680169C943C90708D1C168C943C90733
:1011100004D1891E0161204600F032F8206801697F
:10112000C943090609D4C168C943090605D46FF04B
:10113000800101612046FFF751FE20680169C94323
:10114000490609D4C168C943490605D46FF0400176
:101150000161204600F030F820680169C943890622
:101160000BD4C168C943890607D46FF0200101611F
:101170002046BDE87040FFF732BE70BD7047704733
:1011800010B50068094A90420ED1491CC8B2052822
:101190000AD151140648FFF716FBBDE810404FF482
:1011A00000710448FFF70FBB10BD0000002C014088
:1011B00000100140000C01407047FEE770B50122AD
:1011C0000B4D140321462846FFF705FB0122560369
:1011D00031462846FFF7FFFA002231462846FFF73E
:1011E000FAFA21462846BDE870400022FFF7F3BA1C
:1011F000000C014070B5094C012211032046FFF795
:10120000EAFA6514002229462046FFF7E4FA294647
:101210002046BDE870400122FFF7DDBA000C014016
:1012200070B50122064D140321462846FFF7D3FA74
:1012300021462846BDE870400022FFF7CCBA0000E6
:10124000000C01402DE9F04F85B000252E48009597
:10125000019502950395816941F0100181618169D1
:1012600001F010010491816941F0040181618169FB
:1012700001F004010491816941F0080181618069F4
:10128000DFF8889000F008004FF40054049000222A
:1012900021464846FFF79FFADFF874A043F2F8377B
:1012A000012239465046FFF796FADFF868B04FF44E
:1012B0000048012241465846FFF78DFA009401AAE2
:1012C0000124022682E8700069464846FFF786F945
:1012D0003F20CDE90005694658460295FFF77EF9A3
:1012E000CDE90074CDE9024669465046FFF776F92C
:1012F000CDE90084CDE9024669465846FFF76EF90C
:1013000005B0BDE8F08F0000001002400010014061
:10131000000C01400008014010B586B000241848B8
:101320000094019402940394049414490594016078
:101330004FF4E151C0E901144FF47A71C0E903148C
:101340008021C0E90541FFF77FFD08B1FFF731F9C2
:101350004FF48050009069460948FFF7EDFD08B151
:10136000FFF727F9049404A905480594FFF738FD11
:10137000002801D0FFF71DF906B010BD002C014078
:101380008C000020FEE7FEE770B50024002104F188
:10139000B00000F0FEF80021084600F0FAF8002145
:1013A000102000F0F6F800250121002000F0F1F8EF
:1013B0006D1CEDB2802DF7D3641CE4B2082CE5D38C
:1013C00070BD10B54FF44870FFF7F6F80021AE205D
:1013D00000F0DFF80021084600F0DBF800211020C3
:1013E00000F0D7F80021402000F0D3F80021B02011
:1013F00000F0CFF80021812000F0CBF80021FF2081
:1014000000F0C7F80021A12000F0C3F80021A620B9
:1014100000F0BFF80021A82000F0BBF800213F2019
:1014200000F0B7F80021C82000F0B3F80021D32065
:1014300000F0AFF80021084600F0ABF80021D520FD
:1014400000F0A7F80021802000F0A3F80021D820A8
:1014500000F09FF80021052000F09BF80021D92022
:1014600000F097F80021F12000F093F80021DA2035
:1014700000F08FF80021122000F08BF80021DB2013
:1014800000F087F80021302000F083F800218D2043
:1014900000F07FF80021142000F07BF80021BDE867
:1014A0001040AF2000F075B810B50A460446002180
:1014B00002F1B00000F06DF8102040EA1410002195
:1014C00000F067F804F00F00BDE81040002100F0C4
:1014D00060B800002DE9F041203A00240D46804616
:1014E000D6B27F2803D900208D1C8046EDB2102B88
:1014F000294610D0FFF7D8FF164906EB460001EB4E
:1015000040050121285D00F044F8641CE4B2062C7B
:10151000F7D3BDE8F081FFF7C7FF0F4F04EB0610CC
:101520000121385C00F035F8641CE4B2082CF5D3D6
:101530006D1CE9B24046FFF7B7FF002404EB06102C
:1015400038440121007A00F024F8641CE4B2082C2D
:10155000F4D3DEE70A1D0008321F00082DE9F04130
:10156000984617460E46044600250DE04346314690
:101570002046FFF7AFFF0834E4B2782C02D90024EC
:10158000B61CF6B26D1CEDB27A5D002AEED1BDE854
:10159000F081C0B209B100F0BEB900F0A5B9704742
:1015A0007047FFF723B930B58FB028216846FEF7A2
:1015B00023FF14210AA8FEF71FFF02250120049033
:1015C00000951020059000244FF4E010CDE908406C
:1015D00007956846FFF75EFA08B172B6FEE70F207E
:1015E0000A90CDE90B540D9401210AA80E94FFF73F
:1015F00095F9002801D072B6FEE70FB030BD7047F4
:101600002DE9F05F6348FFF706FD634C2078401C2E
:10161000C0B2207005287CD1607801275F4D4FF45F
:1016200000714FF4807A4FF002084FF00309002652
:1016300020B1012817D0022832D13CE06079401E49
:1016400010F0FF00607103D1554867700078607139
:1016500001222846FFF7BFF8002251462846FFF72F
:10166000BAF8012213E02079401E10F0FF0020712B
:1016700003D184F8018084F8049000222846FFF703
:10168000AAF8002251462846FFF7A5F800221021AB
:101690002846FFF7A0F8002220212846FFF79BF8F4
:1016A000A078DFF800B14FF4004AF0B101283AD039
:1016B000022851D153E0E078401E10F0FF00E070A6
:1016C00003D1394866700078E07000222846FFF7A1
:1016D00082F8012251462846FFF77DF800221021AA
:1016E0002846FFF778F80122D6E7A079401E10F0CF
:1016F000FF00A07104D12D4884F802800078A07109
:10170000002208212846FFF766F801225146584674
:1017100000E022E0FFF75FF8002280212846FFF773
:101720005AF8012214E0E079401E10F0FF00E07149
:1017300002D1A67084F80790002208212846FFF7FE
:101740004AF8002251465846FFF745F800221BE0B0
:1017500040212846FFF73FF82670BDE8F09F207A29
:10176000401E10F0FF00207203D11148A7700078CE
:101770002072012208212846FFF72DF80022514649
:101780005846FFF728F8012280212846FFF723F862
:101790000022DDE78C0000200C000020000C01403E
:1017A0000900002000080140080000200A00002075
:1017B0000B000020F0B50268164B174C174D4FF088
:1017C0008047984205D0B84203D0A04201D0A84239
:1017D00003D122F070064A683243984205D0B842DD
:1017E00003D0A04201D0A84203D122F44074CA68B9
:1017F00022434C6922F08002224302608A68C2625E
:101800000A688262984201D109690163012141613C
:10181000F0BD0000002C0140000400400008004022
:1018200010B5846842EA032224F47F440A43224329
:10183000826010BD826822F070020A4342F0070104
:101840008160704710B5036A046A24F001040462E1
:10185000846924F0F00444EA021423F00A020A43E3
:101860008461026210BD10B5036A046A24F010049A
:101870000462846923F0A00324F4704444EA023231
:1018800043EA01118261016210BDFEE72DE9F041DA
:10189000144F04464FF48056002231463846FEF776
:1018A0009AFF00254FF4005804F08000802816D0DD
:1018B000002241463846FEF78EFF6006040E0122E4
:1018C00031463846FEF787FF002231463846FEF79C
:1018D00082FF6D1CEDB2082DE6D3BDE8F081012238
:1018E000E7E70000000C014010B50446FFF766FC76
:1018F0007820FFF7CBFFFFF793FC0020FFF7C6FF30
:10190000FFF78EFC2046FFF7C1FFFFF789FCBDE81B
:101910001040FFF76FBC10B50446FFF74FFC78206E
:10192000FFF7B4FFFFF77CFC4020FFF7AFFFFFF7A6
:1019300077FC2046FFF7AAFFFFF772FCBDE81040D6
:10194000FFF758BC0907090E002804DB00F1E0206E
:1019500080F80014704700F00F0000F1E02080F8DC
:10196000141D704730380A2801D20120704700202A
:1019700070470000FEF742FFFFF715FEFFF762FC1D
:10198000FFF7CAFCFFF71DFDFFF7FEFCBEA1C04834
:10199000FEF71EFC0C23BE4A00213820FFF7DEFDB7
:1019A000BCA1BB48FEF714FC0C23B94A012100205E
:1019B000FFF7D4FDB9A1B648FEF70AFC0C23B44AE0
:1019C00003210020FFF7CAFDB6A1B148FEF700FCD5
:1019D0000C23AF4A05210020FFF7C0FDB3A1AC489E
:1019E000FEF7F6FB0C23AA4A07210020FFF7B6FDFD
:1019F000B048FFF775FADFF8C0B2DFF8C0A2B04C0C
:101A00004FF001094FF000085D469BF80020ADA1A2
:101A10009F48FEF7DDFB0C239D4A01213220FFF792
:101A20009DFDAA4FA7A19A483A78FEF7D1FB0C2357
:101A3000974A01214B20FFF791FDA54EA1A19448A3
:101A40003278FEF7C5FB0C23914A01216420FFF791
:101A500085FD2A789BA18E48FEF7BAFB0C238C4AA1
:101A600003213220FFF77AFD3A7896A18848FEF7E5
:101A7000AFFB0C23864A03214B20FFF76FFD327822
:101A800090A18348FEF7A4FB0C23814A0321642024
:101A9000FFF764FD8F4F8BA17D483A78FEF798FBE6
:101AA0000C237B4A05213220FFF758FD8A4E85A181
:101AB00077483278FEF78CFB0C23754A05214B20C2
:101AC000FFF74CFD854D7FA171482A78FEF780FB1A
:101AD0000C236F4A05216420FFF740FD3A7879A175
:101AE0006B48FEF775FB0C23694A07213220FFF78C
:101AF00035FD327873A16648FEF76AFB0C23644A11
:101B000007214B20FFF72AFD2A786EA16048FEF7D7
:101B10005FFB0C235E4A07216420FFF71FFD0121B4
:101B200055465046FEF74AFE00284FD084F8008004
:101B300002212846FEF742FEF0B384F8018004211A
:101B40002846FEF73BFEC0B384F8028008212846F1
:101B5000FEF734FE90B384F8038010212846FEF788
:101B60002DFE60B384F8048020212846FEF726FE6F
:101B700030B3404684F80580E178C0B20844C2B270
:101B8000A271217860780144A0780144207908444A
:101B9000C3B2E37152A13E48FEF71AFB00210C23A9
:101BA0003B4A0846FFF7DAFCA079E17988423CD944
:101BB00002281DD80A2004E00BE00DE00FE011E040
:101BC00013E020720C2060720F201DE084F800905A
:101BD000AEE784F80190B2E784F80290B6E70220FD
:101BE000E070BAE784F80490BEE703206071C3E7B1
:101BF00003280DD0FFF408AF4FF00A0020724FF019
:101C0000110060724FF01400A0724FF007000AE05C
:101C10004FF00F0020724FF0110060724FF014006F
:101C2000A0724FF00C00E072EEE623D2022805D835
:101C30000A20A0720C20E0720F200AE003280CD0CA
:101C4000F2D34FF00A00A0724FF01100E0724FF093
:101C5000140020724FF007000AE04FF00F00A0724E
:101C60004FF01100E0724FF0140020724FF00C00A2
:101C70006072C9E64FF00F0020724FF00C016172E4
:101C8000A072E172C0E600005220205920204700D7
:101C90002800002045617374203A00005765737472
:101CA000203A0000536F7574683A00004E6F7274EA
:101CB000683A00008C0000200F000020000801405E
:101CC00000000020253032640000000010000020D9
:101CD000110000201200002013000020140000203A
:101CE00025642025640000000102020304050607A4
:101CF00008090A0B0C0D0E0F101000000000000068
:101D000000000102030406070809000000000000AB
:101D10000000002F000000000700070000147F14DF
:101D20007F1400242A7F2A120062640813230036DD
:101D30004955225000000503000000001C2241000C
:101D4000000041221C000014083E08140008083E50
:101D50000808000000A0600000080808080800004B
:101D600060600000002010080402003E5149453E1A
:101D70000000427F40000042615149460021414538
:101D80004B31001814127F10002745454539003C9F
:101D90004A4949300001710905030036494949366D
:101DA00000064949291E000036360000000056365C
:101DB0000000000814224100001414141414000040
:101DC0004122140800020151090600324959513ECE
:101DD000007C1211127C007F49494936003E414186
:101DE0004122007F4141221C007F49494941007F37
:101DF00009090901003E4149497A007F0808087F26
:101E00000000417F4100002040413F01007F081455
:101E10002241007F40404040007F020C027F007F53
:101E20000408107F003E4141413E007F0909090638
:101E3000003E4151215E007F09192946004649496B
:101E400049310001017F0101003F4040403F001F38
:101E50002040201F003F4038403F006314081463B7
:101E600000070870080700615149454300007F41A1
:101E7000410000552A552A55000041417F000004C9
:101E80000201020400404040404000000102040002
:101E9000002054545478007F484444380038444467
:101EA000442000384444487F0038545454180008F3
:101EB0007E0901020018A4A4A47C007F0804047811
:101EC0000000447D4000004080847D00007F102899
:101ED00044000000417F4000007C04180478007C2E
:101EE0000804047800384444443800FC24242418AE
:101EF0000018242418FC007C0804040800485454EA
:101F0000542000043F444020003C4040207C001C02
:101F10002040201C003C4030403C00442810284415
:101F2000001CA0A0A07C004464544C44141414145D
:101F30001414000000000000000000000000000079
:101F40000000000000F80000000000000033300036
:101F5000000000100C06100C06000000000000003D
:101F6000000040C07840C0784000043F04043F04B3
:101F70000400007088FC08300000001820FF211EBB
:101F80000000F008F000E018000000211C031E21F2
:101F90001E0000F00888700000001E21232419276D
:101FA000211010160E0000000000000000000000CC
:101FB0000000000000E018040200000000071820E4
:101FC000400000020418E000000000402018070054
:101FD0000000404080F0804040000202010F0102FA
:101FE0000200000000F0000000000101011F0101DB
:101FF0000100000000000000000080B07000000040
:1020000000000000000000000000000101010101CB
:10201000010100000000000000000030300000005E
:102020000000000000008060180400601806010035
:10203000000000E010080810E000000F1020201041
:102040000F00001010F8000000000020203F2020AA
:102050000000007008080888700000302824222141
:1020600030000030088888483000001820202011F7
:102070000E000000C02010F8000000070424243FD8
:10208000240000F808888808080000192120201181
:102090000E0000E0108888180000000F11202011A9
:1020A0000E0000380808C83808000000003F000093
:1020B00000000070880808887000001C222121227E
:1020C0001C0000E010080810E0000000312222117E
:1020D0000F00000000C0C000000000000030300011
:1020E0000000000000800000000000008060000090
:1020F00000000000804020100800000102040810C9
:1021000020004040404040404000040404040404D7
:102110000400000810204080000000201008040285
:102120000100007048080808F00000000030360187
:102130000000C030C828E810E00007182724231446
:102140000B000000C038E0000000203C2302022702
:10215000382008F8888888700000203F202020114F
:102160000E00C0300808080838000718202020108A
:10217000080008F808080810E000203F2020201080
:102180000F0008F88888E8081000203F202023204E
:10219000180008F88888E8081000203F2000030095
:1021A0000000C03008080838000007182020221E50
:1021B000020008F808000008F808203F210101216A
:1021C0003F20000808F8080800000020203F2020D9
:1021D000000000000808F8080800C08080807F0028
:1021E000000008F888C028180800203F2001263881
:1021F000200008F8080000000000203F20202020D8
:10220000300008F8F800F8F80800203F003F003FD1
:10221000200008F830C00008F808203F2000071808
:102220003F00E01008080810E0000F1020202010E8
:102230000F0008F808080808F000203F21010101FC
:102240000000E01008080810E0000F18242438509F
:102250004F0008F8888888887000203F2000030C11
:10226000302000708808080838000038202121221A
:102270001C00180808F8080818000000203F20007B
:10228000000008F808000008F808001F202020209F
:102290001F000878880000C83808000007380E01C1
:1022A0000000F80800F80008F800033C0700073CAD
:1022B0000300081868808068180820302C03032C5D
:1022C00030200838C800C83808000000203F20002F
:1022D000000010080808C8380800203826212020EF
:1022E0001800000000FE020202000000007F4040D3
:1022F0004000000C30C00000000000000001063863
:10230000C00000020202FE000000004040407F00CA
:1023100000000000040202020400000000000000AF
:1023200000000000000000000000808080808080AD
:102330008080000202040000000000000000000095
:1023400000000000808080800000001924222222EA
:102350003F2008F8008080000000003F112020117D
:102360000E000000008080800000000E1120202060
:102370001100000000808088F800000E112020105D
:102380003F200000808080800000001F2222222247
:102390001300008080F0888888180020203F2020CB
:1023A00000000000808080808000006B94949493F3
:1023B000600008F8008080800000203F210000209D
:1023C0003F2000809898000000000020203F20203F
:1023D0000000000000809898000000C08080807F8E
:1023E000000008F8000080808000203F24022D308B
:1023F0002000000808F8000000000020203F2020F6
:1024000000008080808080808000203F20003F206E
:10241000003F8080008080800000203F210000205D
:102420003F200000808080800000001F20202020AE
:102430001F00808000808000000080FFA12020110C
:102440000E000000008080808000000E112020A07F
:10245000FF80808080008080800020203F2120003D
:102460000100000080808080800000332424242428
:102470001900008080E0808000000000001F202004
:1024800000008080000000808000001F20202010BD
:102490003F20808080000080808000010E30080690
:1024A000010080800080008080800F300C030C30A1
:1024B0000F0000808000808080000020312E0E31CF
:1024C0002000808080000080808080818E701806CF
:1024D000010000808080808080000021302C22213B
:1024E000300000000000807C020200000000003F7D
:1024F000404000000000FF00000000000000FF005E
:1025000000000002027C800000000040403F00000C
:1025100000000006010102020404000000000000A7
:10252000000004000008000000000000000200019C
:1025300000001000542500080000002028000000C2
:10254000280100087C250008280000201007000052
:10255000440100080000000000000000000000002E
:102560000000000F030C0F030C000000010000002E
:0C25700010000000000000000024F40037
:04000005080000ED02
:00000001FF
